:020000040800F2
:1000000000000320B1730008A1710008A37100086B
:10001000A5710008A7710008A97100080000000080
:10002000000000000000000000000000AB710008AC
:10003000AD71000800000000AF71000801740008F5
:1000400001740008017400080174000801740008BC
:1000500001740008017400080174000801740008AC
:10006000017400080174000801740008017400089C
:10007000017400080174000801740008017400088C
:10008000017400080174000801740008017400087C
:10009000017400080174000801740008017400086C
:1000A000017400080174000801740008017400085C
:1000B000017400080174000801740008017400084C
:1000C000017400080174000801740008017400083C
:1000D000017400080174000801740008017400082C
:1000E000017400080174000801740008017400081C
:1000F000017400080174000801740008017400080C
:1001000001740008017400080174000801740008FB
:100110000174000801740008B1710008017400083E
:1001200001740008017400080174000801740008DB
:1001300001740008017400080174000801740008CB
:1001400001740008017400080174000801740008BB
:1001500001740008017400080174000801740008AB
:10016000017400080174000801740008017400089B
:100170000174000801740008017400080000000008
:10018000017400080174000801740008017400087B
:10019000017400080174000801740008017400086B
:0C01A000017400080174000801740008DC
:1001B00010B5054C237833B9044B13B10448AFF3A1
:1001C00000800123237010BD540B002000000000AC
:1001D00054CF000808B5034B1BB103490348AFF3E4
:1001E000008008BD00000000580B002054CF00081C
:1001F00081F0004102E000BF83F0004330B54FEAD8
:1002000041044FEA430594EA050F08BF90EA020F44
:100210001FBF54EA000C55EA020C7FEA645C7FEAD7
:10022000655C00F0E2804FEA5454D4EB5555B8BFFA
:100230006D420CDD2C4480EA020281EA030382EA6B
:10024000000083EA010180EA020281EA0303362DFD
:1002500088BF30BD11F0004F4FEA01314FF4801CD0
:100260004CEA113102D0404261EB410113F0004FE2
:100270004FEA03334CEA133302D0524263EB430399
:1002800094EA050F00F0A780A4F10104D5F1200E37
:100290000DDB02FA0EFC22FA05F2801841F1000192
:1002A00003FA0EF2801843FA05F359410EE0A5F166
:1002B00020050EF1200E012A03FA0EFC28BF4CF097
:1002C000020C43FA05F3C01851EBE37101F000454D
:1002D00007D54FF0000EDCF1000C7EEB00006EEB5A
:1002E0000101B1F5801F1BD3B1F5001F0CD34908E4
:1002F0005FEA30004FEA3C0C04F101044FEA44523B
:1003000012F5800F80F09A80BCF1004F08BF5FEAC1
:10031000500C50F1000041EB045141EA050130BDA1
:100320005FEA4C0C404141EB010111F4801FA4F144
:100330000104E9D191F0000F04BF01460020B1FA99
:1003400081F308BF2033A3F10B03B3F120020CDAD1
:100350000C3208DD02F1140CC2F10C0201FA0CF0AF
:1003600021FA02F10CE002F11402D8BFC2F1200C14
:1003700001FA02F120FA0CFCDCBF41EA0C019040CA
:10038000E41AA2BF01EB0451294330BD6FEA040413
:100390001F3C1CDA0C340EDC04F11404C4F12002FE
:1003A00020FA04F001FA02F340EA030021FA04F310
:1003B00045EA030130BDC4F10C04C4F1200220FA67
:1003C00002F001FA04F340EA0300294630BD21FAA5
:1003D00004F0294630BD94F0000F83F4801306BF6B
:1003E00081F480110134013D4EE77FEA645C18BF5F
:1003F0007FEA655C29D094EA050F08BF90EA020FF6
:1004000005D054EA000C04BF1946104630BD91EAED
:10041000030F1EBF0021002030BD5FEA545C05D1F0
:100420004000494128BF41F0004130BD14F580042F
:100430003CBF01F5801130BD01F0004545F0FE41A3
:1004400041F470014FF0000030BD7FEA645C1ABFD8
:10045000194610467FEA655C1CBF0B46024650EA0F
:10046000013406BF52EA033591EA030F41F400213B
:1004700030BD00BF90F0000F04BF0021704730B5C1
:100480004FF4806404F132044FF000054FF0000196
:1004900050E700BF90F0000F04BF0021704730B557
:1004A0004FF4806404F1320410F0004548BF40422C
:1004B0004FF000013EE700BF42004FEAE2014FEA81
:1004C00031014FEA02701FBF12F07F4393F07F4F5C
:1004D00081F06051704732F07F4208BF704793F05F
:1004E0007F4F04BF41F40021704730B54FF4607472
:1004F00001F0004521F000411CE700BF50EA010275
:1005000008BF704730B54FF000050AE050EA01021D
:1005100008BF704730B511F0004502D5404261EB8D
:1005200041014FF4806404F132045FEA915C3FF4CE
:10053000D8AE4FF003025FEADC0C18BF03325FEA6B
:10054000DC0C18BF033202EBDC02C2F1200300FA1C
:1005500003FC20FA02F001FA03FE40EA0E0021FA41
:1005600002F11444BDE600BF70B54FF0FF0C4CF42F
:10057000E06C1CEA11541DBF1CEA135594EA0C0FE1
:1005800095EA0C0F00F0DEF82C4481EA030621EA1C
:100590004C5123EA4C5350EA013518BF52EA033557
:1005A00041F4801143F4801338D0A0FB02CE4FF009
:1005B0000005E1FB02E506F00042E0FB03E54FF039
:1005C0000006E1FB03569CF0000F18BF4EF0010E31
:1005D000A4F1FF04B6F5007F64F5407404D25FEA2D
:1005E0004E0E6D4146EB060642EAC62141EA5551E0
:1005F0004FEAC52040EA5E504FEACE2EB4F1FD0C22
:1006000088BFBCF5E06F1ED8BEF1004F08BF5FEA9F
:10061000500E50F1000041EB045170BD06F0004651
:1006200046EA010140EA020081EA0301B4EB5C04FE
:10063000C2BFD4EB0C0541EA045170BD41F48011F6
:100640004FF0000E013C00F3AB8014F1360FDEBF1B
:10065000002001F0004170BDC4F10004203C35DAF7
:100660000C341BDC04F11404C4F1200500FA05F37A
:1006700020FA04F001FA05F240EA020001F000421B
:1006800021F0004110EBD37021FA04F642EB060191
:100690005EEA430E08BF20EAD37070BDC4F10C04BB
:1006A000C4F1200500FA04F320FA05F001FA04F27F
:1006B00040EA020001F0004110EBD37041F100016B
:1006C0005EEA430E08BF20EAD37070BDC4F1200576
:1006D00000FA05F24EEA020E20FA04F301FA05F2DE
:1006E00043EA020321FA04F001F0004121FA04F286
:1006F00020EA020000EBD3705EEA430E08BF20EA56
:10070000D37070BD94F0000F0FD101F0004640008F
:1007100041EB010111F4801F08BF013CF7D041EA11
:10072000060195F0000F18BF704703F00046520015
:1007300043EB030313F4801F08BF013DF7D043EAE6
:100740000603704794EA0C0F0CEA135518BF95EA9C
:100750000C0F0CD050EA410618BF52EA4306D1D123
:1007600081EA030101F000414FF0000070BD50EA42
:10077000410606BF1046194652EA430619D094EACC
:100780000C0F02D150EA013613D195EA0C0F05D1B6
:1007900052EA03361CBF104619460AD181EA03010A
:1007A00001F0004141F0FE4141F470014FF00000C2
:1007B00070BD41F0FE4141F4780170BD70B54FF05D
:1007C000FF0C4CF4E06C1CEA11541DBF1CEA1355DD
:1007D00094EA0C0F95EA0C0F00F0A7F8A4EB0504BF
:1007E00081EA030E52EA03354FEA013100F08880B6
:1007F0004FEA03334FF0805545EA131343EA12637F
:100800004FEA022245EA111545EA10654FEA002633
:100810000EF000419D4208BF964244F1FD0404F5EC
:10082000407402D25B084FEA3202B61A65EB030548
:100830005B084FEA32024FF480104FF4002CB6EB05
:10084000020E75EB030E22BFB61A754640EA0C0085
:100850005B084FEA3202B6EB020E75EB030E22BFC5
:10086000B61A754640EA5C005B084FEA3202B6EB06
:10087000020E75EB030E22BFB61A754640EA9C00C5
:100880005B084FEA3202B6EB020E75EB030E22BF95
:10089000B61A754640EADC0055EA060E18D04FEA53
:1008A000051545EA16754FEA06164FEAC30343EAF3
:1008B00052734FEAC2025FEA1C1CC0D111F4801FC0
:1008C0000BD141EA00014FF000004FF0004CB6E7B9
:1008D00011F4801F04BF01430020B4F1FD0C88BF58
:1008E000BCF5E06F3FF6AFAEB5EB030C04BFB6EB63
:1008F000020C5FEA500C50F1000041EB045170BD56
:100900000EF0004E4EEA113114EB5C04C2BFD4EB82
:100910000C0541EA045170BD41F480114FF0000E06
:10092000013C90E645EA060E8DE60CEA135594EA82
:100930000C0F08BF95EA0C0F3FF43BAF94EA0C0F85
:100940000AD150EA01347FF434AF95EA0C0F7FF4FA
:1009500025AF104619462CE795EA0C0F06D152EA4E
:1009600003353FF4FDAE1046194622E750EA410632
:1009700018BF52EA43067FF4C5AE50EA41047FF443
:100980000DAF52EA43057FF4EBAE12E74FEA4102A6
:10099000B2F1E04324BFB3F5001CDCF1FE5C0DD9DD
:1009A00001F0004C4FEAC0024CEA5070B2F1004F27
:1009B00040EB830008BF20F00100704711F0804F2A
:1009C00021D113F13872BCBF01F00040704741F4EF
:1009D00080114FEA5252C2F11802C2F1200C10FAF3
:1009E0000CF320FA02F018BF40F001004FEAC123D7
:1009F0004FEAD32303FA0CFC40EA0C0023FA02F37B
:100A00004FEA4303CCE77FEA625307D150EA013350
:100A10001EBF4FF0FE4040F44000704701F0004020
:100A200040F0FE4040F40000704700BF53B94AB99F
:100A3000002908BF00281CBF4FF0FF314FF0FF30E6
:100A400000F072B9ADF1080C6DE904CE00F006F8C3
:100A5000DDF804E0DDE9022304B070472DE9F0473A
:100A6000089E04468846002B4BD18A42154667D91A
:100A7000B2FA82F24AB1C2F1200701FA02F320FA77
:100A800007F7954047EA030894404FEA154E230CB8
:100A9000B8FBFEF71FFA85FC0EFB178843EA0843F4
:100AA00007FB0CF1994209D9EB1807F1FF3080F0F0
:100AB0001B81994240F21881023F2B445B1AA4B279
:100AC000B3FBFEF00EFB103344EA034400FB0CFCC6
:100AD000A44509D92C1900F1FF3380F00781A44502
:100AE00040F2048102382C4440EA0740A4EB0C0495
:100AF00000271EB1D4400023C6E900433946BDE8B3
:100B0000F0878B4209D9002E00F0EB800027C6E960
:100B1000000138463946BDE8F087B3FA83F7002F65
:100B200047D18B4202D3824200F2FA80841A61EBF1
:100B3000030301209846002EE0D0C6E90048DDE717
:100B400002B9FFDEB2FA82F2002A40F08F80491B20
:100B50004FEA154E1FFA85F80127B1FBFEFC230C66
:100B60000EFB1C1143EA014308FB0CF1994207D923
:100B7000EB180CF1FF3002D2994200F2CD8084468E
:100B8000591AA3B2B1FBFEF00EFB101443EA044461
:100B900008FB00F8A04507D92C1900F1FF3302D259
:100BA000A04500F2B6801846A4EB080440EA0C40C9
:100BB0009FE7C7F1200CBB4022FA0CFE4EEA030E61
:100BC00001FA07F420FA0CF521FA0CF34FEA1E485B
:100BD0002543B3FBF8F92C0C08FB19331FFA8EFAE6
:100BE00044EA034309FB0AF49C4202FA07F200FAC2
:100BF00007F10BD91EEB030309F1FF3080F087806A
:100C00009C4240F28480A9F1020973441B1BADB2DF
:100C1000B3FBF8F008FB103345EA034400FB0AFA83
:100C2000A24508D91EEB040400F1FF336BD2A245A4
:100C300069D90238744440EA0940A0FB0289A4EB58
:100C40000A044C45C2464B4654D351D0002E69D0BD
:100C5000B1EB0A0564EB030404FA0CFCFD40FC4014
:100C60004CEA0505C6E90054002747E7C2F1200316
:100C700020FA03F7954001FA02F021FA03F34FEA54
:100C8000154E3843010CB3FBFEF71FFA85F80EFB37
:100C9000173341EA034107FB08F38B4204FA02F4DD
:100CA00007D9691807F1FF3C2FD28B422DD9023F9B
:100CB0002944CB1A81B2B3FBFEF00EFB103341EA9C
:100CC000034100FB08F38B4207D9691800F1FF3C90
:100CD00017D28B4215D902382944C91A40EA07476E
:100CE0003BE73746304609E70746E7E61846FBE6A6
:100CF0004145ABD2B8EB020A69EB0E02013813464C
:100D0000A4E76046E9E7184695E76746D1E78146DC
:100D10007CE702382C4447E7ACF1020C2B442FE768
:100D2000384608E73746E9E6704700BF034613F840
:100D3000012B002AFBD1181A01387047000000006F
:100D400001F0FF01102A2BDB10F0070F08D010F87C
:100D5000013B013A8B422DD010F0070F42B3F6D180
:100D6000F0B441EA012141EA014122F007047FF099
:100D700000070023F0E80256083C85EA010586EAF0
:100D8000010685FA47F5A3FA87F586FA47F6A5FA2C
:100D900087F68EB9EED1F0BC01F0FF0102F0070238
:100DA00032B110F8013B013A83EA010313B1F8D1E3
:100DB0000020704701387047002D06BF35460338C4
:100DC000073815F0010F07D1013015F4807F02BFFD
:100DD000013015F4C03F0130F0BC0138704700BF4E
:100DE0004FF0FF3C06E000BF4FF0010C02E000BFF7
:100DF0004FF0010C4DF804CD4FEA410C7FEA6C5CDA
:100E00004FEA430C18BF7FEA6C5C1BD001B050EA7C
:100E1000410C0CBF52EA430C91EA030F02BF90EA67
:100E2000020F0020704710F1000F91EA030F58BF26
:100E3000994208BF90422CBFD8176FEAE37040F088
:100E4000010070474FEA410C7FEA6C5C02D150EA26
:100E5000013C07D14FEA430C7FEA6C5CD6D152EAE1
:100E6000033CD3D05DF8040B704700BF84461046A6
:100E700062468C461946634600E000BF01B5FFF7A5
:100E8000B7FF002848BF10F1000F01BD4DF808ED75
:100E9000FFF7F4FF0CBF012000205DF808FB00BF46
:100EA0004DF808EDFFF7EAFF34BF012000205DF8A0
:100EB00008FB00BF4DF808EDFFF7E0FF94BF0120ED
:100EC00000205DF808FB00BF4DF808EDFFF7CEFFEE
:100ED00094BF012000205DF808FB00BF4DF808ED2D
:100EE000FFF7C4FF34BF012000205DF808FB00BFFE
:100EF0004FEA410C7FEA6C5C02D150EA013C0AD116
:100F00004FEA430C7FEA6C5C02D152EA033C02D107
:100F10004FF0000070474FF0010070474FEA410268
:100F200012F5001215D211D56FF47873B3EB62523B
:100F300012D94FEAC12343F0004343EA505311F062
:100F4000004F23FA02F018BF404270474FF00000F4
:100F5000704750EA013005D111F0004008BF6FF032
:100F6000004070474FF00000704700BFF02070470E
:100F70004FF4A070704708B500F06EFE08BD08B5CC
:100F80002920FFF7F8FF08BD08B52820FFF7F3FF79
:100F900008BD08B500F044FE08BD08B500F0DAFD54
:100FA000CA20FFF7E8FFC320FFF7F3FF0820FFF791
:100FB000F0FF5020FFF7EDFFCF20FFF7DCFF002010
:100FC000FFF7E7FFC120FFF7E4FF3020FFF7E1FF65
:100FD000ED20FFF7D0FF6420FFF7DBFF0320FFF7D2
:100FE000D8FF1220FFF7D5FF8120FFF7D2FFE820BE
:100FF000FFF7C1FF8520FFF7CCFF0020FFF7C9FFF7
:101000007820FFF7C6FFCB20FFF7B5FF3920FFF7A9
:10101000C0FF2C20FFF7BDFF0020FFF7BAFF3420F0
:10102000FFF7B7FF0220FFF7B4FFF720FFF7A3FF9A
:101030002020FFF7AEFFEA20FFF79DFF0020FFF71B
:10104000A8FF0020FFF7A5FFB120FFF794FF0020C5
:10105000FFF79FFF1B20FFF79CFFB620FFF78BFFDA
:101060000A20FFF796FFA220FFF793FFC020FFF7AB
:1010700082FF1020FFF78DFFC120FFF77CFF1020BB
:10108000FFF787FFC520FFF776FF4520FFF781FFB9
:101090001520FFF77EFFC720FFF76DFF9020FFF7B9
:1010A00078FF3620FFF767FFC820FFF772FFF220B6
:1010B000FFF761FF0020FFF76CFFB020FFF75BFF39
:1010C000C220FFF766FFB620FFF755FF0A20FFF7A3
:1010D00060FFA720FFF75DFF2720FFF75AFF0420DE
:1010E000FFF757FF2A20FFF746FF0020FFF751FFC9
:1010F0000020FFF74EFF0020FFF74BFFEF20FFF728
:1011000048FF2B20FFF737FF0020FFF742FF0020AA
:10111000FFF73FFF0120FFF73CFF3F20FFF739FFBC
:10112000F620FFF728FF0120FFF733FF0020FFF72D
:1011300030FF0620FFF72DFF2C20FFF71CFFC820F3
:1011400000F0CEFD2620FFF716FF0120FFF721FF5C
:10115000E020FFF710FF0F20FFF71BFF2920FFF70C
:1011600018FF2420FFF715FF0C20FFF712FF0E20B9
:10117000FFF70FFF0920FFF70CFF4E20FFF709FFD5
:101180007820FFF706FF3C20FFF703FF0920FFF759
:1011900000FF1320FFF7FDFE0520FFF7FAFE1720E2
:1011A000FFF7F7FE1120FFF7F4FE0020FFF7F1FE36
:1011B000E120FFF7E0FE0020FFF7EBFE1620FFF72F
:1011C000E8FE1B20FFF7E5FE0420FFF7E2FE1120FA
:1011D000FFF7DFFE0720FFF7DCFE3120FFF7D9FE27
:1011E0003320FFF7D6FE4220FFF7D3FE0520FFF79E
:1011F000D0FE0C20FFF7CDFE0A20FFF7CAFE282004
:10120000FFF7C7FE2F20FFF7C4FE0F20FFF7C1FE38
:101210001120FFF7B0FEC82000F062FD2920FFF783
:10122000AAFE2C20FFF7A7FE08BD08B500F030FD90
:1012300008BD08B500F08EFC0321D320FFF7F5FFB1
:1012400080B208BD0023012B06D8054AD25C824239
:1012500003D00133DBB2F6E7FF231846704700BF27
:10126000700B002008B52AB9CAB21121C0B200F033
:1012700043FD08BDCAB21021C0B200F03DFDF8E741
:1012800010B5C4B202220321204600F035FD0A2029
:1012900000F03EFD00220321204600F02DFD02203B
:1012A00000F036FD10BD000010B50446FFF7CAFF80
:1012B000FF2800D010BD0020FFF7C4FF0128F9D897
:1012C000034B1C5400F010FD2046FFF7D9FFF1E757
:1012D000700B002038B5044600F006FDE4B2002192
:1012E000204600F00DFD05020121204600F008FD1A
:1012F00000B2284380B238BD10B50C461221C0B2EE
:1013000000F0FEFCE4B2204010BD10B50C460D21EB
:10131000C0B200F0F5FCE4B2204010BD10B5C4B27C
:101320004021204600F0ECFC10F0800F0CD101228F
:101330004B21204600F0E0FC00224B21204600F02B
:10134000DBFC0023184610BD4C21204600F0D8FCE1
:1013500003460028F6D00123F4E770B582B00E46AC
:101360001546C4B204230DEB0302D721204600F03A
:10137000CBFC9DF804209DF805301B0443EA026372
:101380009DF8062043EA02239DF8072013431A0D17
:101390003280C3F30B232B8001224B21204600F027
:1013A000ABFC00224B21204600F0A6FC02B070BD31
:1013B00010B5C4B20921204600F0A2FC40F00102A1
:1013C000D2B20921204600F097FC10BD10B5C4B27E
:1013D0000921204600F094FC00F0FE02092120467D
:1013E00000F08AFC10BD38B50C46C5B20A2128466B
:1013F00000F086FC40EA0402D2B20A21284600F03E
:101400007BFC38BD10B5044600F072FC80212046FC
:10141000FFF7E9FF2046FFF7CBFF10BD10B50446EC
:1014200000F066FC1F212046FFF7DDFF2046FFF796
:10143000BFFF10BD38B50C46C5B20A21284600F0E2
:101440005FFC20EA0402D2B20A21284600F054FCD4
:1014500038BD10B50446FFF7B9FF80212046FFF7DD
:10146000E9FF10BD10B50446FFF7B0FF1F2120466D
:10147000FFF7E0FF10BD38B50D46C4B20921204684
:1014800000F03EFC00F0FB022A430921204600F058
:1014900033FC38BD38B50D46C4B20921204600F0F2
:1014A0002FFC00F0FD022A430921204600F024FC15
:1014B00038BD10B50C460B21C0B200F021FC204015
:1014C00010BD08B51F21FFF7F4FF08BD08B50A4697
:1014D0000B21C0B200F010FC08BD38B504460D4623
:1014E0008021FFF7F3FFE4B2EDB22A460D2120463A
:1014F00000F002FC2A461421204600F0FDFB2A469B
:101500001521204600F0F8FB2A461621204600F05F
:10151000F3FB38BD08B51F21FFF7D8FF08BD70B534
:101520000C461646C5B21321284600F0E9FB3EB929
:1015300020EA0402D2B21321284600F0DDFB70BD80
:10154000E2B20243D2B2F6E738B50C46C5B2172173
:10155000284600F0D5FBE4B20443E2B21721284646
:1015600000F0CAFB38BD70B504460E46C5B2042172
:10157000284600F0C5FB00F0FA020421284600F0DE
:10158000BBFBF1B22046FFF7DFFF70BD38B50C465C
:10159000C5B21721284600F0B3FB20EA0402D2B2FC
:1015A0001721284600F0A8FB38BD70B50646C4B226
:1015B0000421204600F0A4FB054600F0FB020421B4
:1015C000204600F099FBF0213046FFF7DFFF05F0E1
:1015D000F8020421204600F08FFB492220212046FA
:1015E00000F08AFB022000F093FB0122212120461B
:1015F00000F082FB9A224121204600F07DFB01226F
:101600004A21204600F078FB01224B21204600F0C1
:1016100073FB00224B21204600F06EFB0122562175
:10162000204600F069FB01225821204600F064FBAF
:1016300001224021204600F05FFBFF220B212046C3
:1016400000F05AFB022000F063FB70BD2DE9F04171
:101650000E461746C5B21621284600F051FB8046BB
:101660001521284600F04CFBF44364B204EA08025A
:10167000D2B20440E4B217F0010F01D0F3B21A4322
:1016800017F0020F01D0F6B234431621284600F0BD
:1016900033FB22461521284600F02EFBBDE8F081E1
:1016A00038B50C46C5B20C21284600F029FBE4B23F
:1016B0000443E2B20C21284600F01EFB38BD38B5C9
:1016C00004460D46052A64D8DFE802F003080D231E
:1016D000394E0022FFF723FF002038BD0122FFF71B
:1016E0001EFF0020F9E7FFF78DFE29462046FFF791
:1016F000D7FF002229462046FFF711FF022120468E
:10170000FFF7C8FE022229462046FFF79FFF002070
:10171000E3E7FFF777FE29462046FFF7C1FF0022E7
:1017200029462046FFF7FBFE02212046FFF7B2FEC6
:10173000012229462046FFF789FF0020CDE7FFF769
:1017400061FE29462046FFF7ABFF002229462046CE
:10175000FFF7E5FE00212046FFF79CFE0021204612
:10176000FFF789FE0020B8E7FFF74CFE2946204628
:10177000FFF796FF002229462046FFF7D0FE002102
:101780002046FFF787FE04212046FFF774FE002065
:10179000A3E71046A1E7000000B589B00021019140
:1017A000124B5A6C42F480125A645A6C02F4801242
:1017B0000192019A02911A6B42F020021A631B6B8C
:1017C00003F020030293029B4FF460730393022300
:1017D00004930593012306930523079303A9044863
:1017E00001F050FC09B05DF804FB00BF0038024076
:1017F0000014024002682A4B9A4200D0704730B56C
:1018000089B000250095274C236B43F00403236324
:10181000236B03F004030093009B0195236B43F0BB
:1018200001032363236B03F001030193019B4FF436
:1018300080730393122304930595022306930423D4
:10184000079303A9184801F01DFC4FF4007303939C
:1018500003A9164801F016FC0295236C43F400031B
:101860002364236C03F400030293029B236A43F472
:1018700000032362236A23F4000323622A460F2114
:10188000482001F01DF9482001F04EF92A460F21A9
:10189000492001F015F9492001F046F909B030BDA1
:1018A000005C004000380240000002400008024096
:1018B00010B586B0002400940F4B1A6B42F0010261
:1018C0001A631B6B03F001030093009B4FF400436A
:1018D0000193012303930494084B029301A9084840
:1018E00001F0D0FB22460F21282001F0E9F8282042
:1018F00001F01AF906B010BD0038024000002110B6
:101900000000024010B5104803F065FD00B110BDA5
:101910000D4C0E4B23601823E3610023A360636129
:101920002361A3620722E262E36023624FF4007244
:10193000A26163624FF4827363602046FFF72CFF5D
:10194000204603F05DFAE2E7740B002000500140EE
:1019500008B5034803F094FAFFF7D4FF08BD00BFB1
:10196000740B002000B583B002A921F8020D064BCC
:101970001B680122054803F099FA10B903B05DF81D
:1019800004FBFFF7E5FFF9E78C000020740B002053
:1019900000B583B0074B1B68024601A9064803F057
:1019A00069FC18B9019803B05DF804FBFFF7D0FF9C
:1019B000F8E700BF8C000020740B002010B50D4824
:1019C00002F058FA00B110BD0A4C0B4B23600B4BD0
:1019D00063600023A360E3604FF48042226163618F
:1019E000A361E36123622046FFF704FF204601F074
:1019F00031FFE8E798250020005C0040A086010048
:101A000008B5034802F000F8FFF7D8FF08BD00BF93
:101A10009825002010B586B006AC04F8012D084BBF
:101A20005B6802930123019300940A46014605482E
:101A300002F004F808B906B010BDFFF7E1FFFAE7BD
:101A40008C0000209825002000B587B006AA00234E
:101A500002F8013D094B5B68029301230193009258
:101A60000A460146064802F09DF820B99DF8170085
:101A700007B05DF804FBFFF7C3FFF7E78C00002019
:101A80009825002010B584B0094C64680294019335
:101A9000009201230A460146064802F083F810B975
:101AA000002004B010BDFFF7ABFF0120F9E700BF35
:101AB0008C0000209825002030B587B00C460546E4
:101AC00058B9002300931A4B1A6B42F001021A63B3
:101AD0001B6B03F001030093009B1CB1012C10D081
:101AE00007B030BD01230193002302930223039327
:101AF0000493104B03EB850301A9186901F0C2FAA6
:101B0000ECE701230193002403940B4B0293094B50
:101B100003EB850501A9286901F0B4FA22460F21DB
:101B2000062000F0CDFF062000F0FEFFD8E700BF42
:101B3000003802408C0000200000111008B5044B52
:101B400003EB80000121006901F02CFC08BD00BFFF
:101B50008C0000202F4B93F8583003B170472DE9CB
:101B6000F04188B001262B4B83F858600025009582
:101B7000294C236B43F008032363236B03F0080312
:101B80000093009B4FF400530393049605954FF088
:101B90000208CDF81880214F03A9384601F072FAE7
:101BA0000195236B43F008032363236B03F00803C1
:101BB0000193019B4FF48053039304960595CDF850
:101BC000188003A9384601F05DFA0295236B43F0B3
:101BD00004032363236B03F004030293029B042793
:101BE000039704960595CDF81880A4F5405403A9F1
:101BF000204601F047FA2A463946204601F0D9FB33
:101C000032463946204601F0D4FBFFF77BFE08B090
:101C1000BDE8F081740B002000380240000C024047
:101C200038B5054601224FF40051094801F0C1FBC7
:101C3000084C00220421204601F0BBFB2846FFF798
:101C400091FE01220421204601F0B3FB38BD00BF04
:101C5000000C02400008024038B5054600224FF44F
:101C60000051094801F0A5FB084C00220421204640
:101C700001F09FFB2846FFF775FE01220421204654
:101C800001F097FB38BD00BF000C02400008024085
:101C9000F8B507460E46104C00220421204601F0FC
:101CA00088FB0E4D00224FF40051284601F081FBC5
:101CB0003846FFF757FE3046FFF76AFE0646012218
:101CC0004FF40051284601F074FB01220421204604
:101CD00001F06FFB3046F8BD00080240000C0240E6
:101CE00008B500F0C7FE08BD08B5FFF767FE08BDE0
:101CF00008B5FFF7DDFD08BD08B5FFF78BFE08BD91
:101D000008B5FFF7A1FE08BD08B5FFF7BBFE08BD8B
:101D100008B500F0AFFE08BDF0B583B004460D462F
:101D200016461F4611484FF440334360002383603A
:101D3000089BC3600E4B036001F059F808B103B073
:101D4000F0BD2146094801F03BF90028F7D1009782
:101D500033462A460999054801F076F80028EED165
:101D60000A21024801F08CF8E9E700BFD00B0020FF
:101D700000B0024008B5024B1B689B6A984708BD3B
:101D80009426002008B5024B1B68DB6A984708BD03
:101D90009426002070B58EB005460E4600240194AE
:101DA000FFF7E8FF02900394FFF7ECFF049005941F
:101DB0000A96FF23069307948DF834408DF835403A
:101DC0008DF836404FF4C063089307230993FFF75B
:101DD000D1FF0B90FFF7D6FF0C900D4C2A4601A9BE
:101DE000204602F0D1F90B4A680041198B001344D8
:101DF0004FF0FF31596408499964284483001A441C
:101E00004FF07F431364204602F02EFA0EB070BDEF
:101E1000EC250020D00B0020A0000020014B98658D
:101E2000704700BFD00B0020012910D00D4B1B685C
:101E300003EBC010D0F8843023F00103C0F88430E5
:101E4000084B1A68536A43F0010353627047054B0D
:101E50001B6803EBC010D0F8843043F00103C0F8D6
:101E60008430EDE7EC25002038B50546044C0246E9
:101E7000204602F0B7F92946204602F0D7F938BDCE
:101E8000EC250020034A936D03EB430399000A44B9
:101E900010647047D00B0020034A936D03EB43039B
:101EA00099000A4450647047D00B0020034A936D98
:101EB00003EB430399000A4490647047D00B002061
:101EC000F0B583B007460B4B9C6D0B4A342303FBE4
:101ED0000423DD6DFFF74EFF0646FFF753FF019722
:101EE000002300930346324629462046FFF714FF9D
:101EF00003B0F0BDD00B0020EC2500202DE9F0410F
:101F000082B080460D4616460E4CA36D0E4A342113
:101F100001FB0323DF6DFFF72DFF00FB0581A06DA3
:101F200000EB400293001C44236C019300230093B8
:101F30000123324607EB8101FFF7EEFE02B0BDE858
:101F4000F08100BFD00B0020EC2500202DE9F041EE
:101F500082B080460E461746104CA36D104A3421BD
:101F600001FB0323DD6DFFF705FF00FB068005EB9A
:101F70008005A66DFFF7FEFEA36D03EB43039A00F9
:101F80001444236C0193013800903B4601222946FA
:101F90003046FFF7C1FE02B0BDE8F081D00B002053
:101FA000EC250020F8B504460D4617461E46FFF7FF
:101FB000A5FFA9193A4689B22046FFF79FFF32468E
:101FC00029462046FFF7C2FFE0193246294680B273
:101FD000FFF7BCFFF8BD00002DE9F04383B0804659
:101FE0000F4615461E46164CA36D03EB43039A009D
:101FF0002244106CFFF746FFA36D124A342101FB07
:102000000323D3F85C90FFF7B5FE00FB078009EBD4
:102010008009D4F85880FFF7ADFEA36D03EB4303AE
:102020009A001444236C0193401B009033462A46C7
:1020300049464046FFF770FE03B0BDE8F08300BF9D
:10204000D00B0020EC25002008B5034B1B689B68D3
:1020500003B1984708BD00BF9426002030B58FB06B
:1020600000220192484B596C41F080615964596CCF
:1020700001F08061019101990292196B41F4000114
:102080001963196B01F40001029102990392196B13
:1020900041F001011963196B01F0010103910399EA
:1020A0000492196B41F002011963196B01F00201EE
:1020B000049104990592196B41F004011963196B9D
:1020C00001F00401059105990692196B41F0080190
:1020D0001963196B01F00801069106990792196BB3
:1020E00041F020011963196B01F020010791079954
:1020F0000892196B41F0400119631B6B03F0400318
:102100000893089B41F65803099302230A930B9204
:102110000C930E230D9309A91C4800F0B3FF4FF454
:10212000706309931A4D09A9284600F0ABFF4FF4DC
:102130009863099309A9174800F0A4FF482309935D
:1021400009A9154800F09EFF4FF48063099309A97F
:10215000124800F097FF4FF40C630993104C09A943
:10216000204600F08FFF0323099309230D9309A94B
:10217000284600F087FF4FF4A053099309A9204691
:1021800000F080FF0FB030BD003802400000024078
:102190000004024000080240000C0240001402400B
:1021A0000018024038B5204C204B2360092363619E
:1021B0000123A3611D23E3610323236240F20D1376
:1021C000636240F24313A36240F21713E36240F2EA
:1021D00047132363002584F8365084F8345084F87C
:1021E000355013480823C365C023C36604234367DF
:1021F0004FF40033C0F880305C3002F0A5FB65601E
:10220000A560E5602561FFF729FF204601F042FF48
:10221000084B094A13601B68984700F029FB0748E0
:10222000FFF744FE284638BDEC2500200068014039
:10223000D00B00200000002094260020A0000020E9
:10224000F8B507460C461646064B9B6D064A3421E8
:1022500001FB0323DD6DFFF78DFD00FB047045F8E6
:102260002060F8BDD00B0020EC2500202DE9F04FB8
:1022700083B081460F460092334A936D03EB4303CC
:1022800099000A44936CDA8801929D8805F1070B46
:102290004FEAEB0B4FEACB085FFA88F8EBB2A8EBFA
:1022A00003085FFA88F84FF0000A33E0009AD65C22
:1022B000002413E00099CB5C567846EA0326F7E742
:1022C000214A936D03EB430399000A4409EB040090
:1022D000526C394680B2FFF7B3FF0134A54215D9DD
:1022E0002B1B4344013B012202FA03F33342E7D0A4
:1022F000154A936D03EB430399000A4409EB04006C
:10230000126C394680B2FFF79BFFE6E70137BFB298
:102310000AF1010A019B534512D90AFB0BF3009AFB
:102320001A44BBF1010FC1D0BBF1020FC2D000991A
:10233000CB5C5678360246EA034693781E43B7E7ED
:1023400003B0BDE8F08F00BFD00B002038B50A4CB9
:10235000A36D03EB43039D002C44A36C1C68A2F106
:102360002005DA8802FB05F29B880733DB1003FBAC
:102370000242FFF77BFF38BDD00B00202DE9F04172
:1023800006460F46154698461346002401E00134E0
:1023900013465A1C1B78002BF9D1FFF7EBFC274A98
:1023A000936D03EB430399000A44936C9A88B0FB46
:1023B000F2F0B8F1010F04D0B8F1020F09D00024F7
:1023C00020E0031B03FB02F3C3F34F031E44B6B22A
:1023D000F5E7001B10FB02F016FA80F6B6B2EEE746
:1023E00015F8012B39463046FFF7B0FF134A936DBD
:1023F00003EB430399000A44936C9B881E44B6B2D6
:102400000134A4B295F80080FFF7B4FC0B4A936D39
:1024100003EB430399000A44936C9B8803FB14006D
:1024200080B2984234BF00200120B8F1000F08BFED
:1024300000200028D4D1BDE8F08100BFD00B0020DF
:102440002DE9F04F85B082468B465300C3F103035C
:10245000009391464FF0000805E003EB8803063334
:10246000009308F10108C8457AD81FFA88F505EBF2
:102470000A0398B21FFA89F6ABEB0607BFB23A4CD3
:10248000A36D03EB43039A002244126C394601907A
:10249000FFF7D6FEAAEB05039BB21846A36D03EB2C
:1024A00043039A002244126C39460290FFF7C8FE9B
:1024B00006EB0A039BB21846ABEB0507BFB2A36D50
:1024C00003EB43039A002244126C39460390FFF752
:1024D000B7FEAAEB06039BB21846A36D03EB4303BA
:1024E0009A002244126C39460746FFF7A9FE5E4463
:1024F000B6B2A36D03EB43039A002244126C31463B
:102500000198FFF79DFEA36D03EB43039A0022445D
:10251000126C31460298FFF793FE5D44ADB2A36D95
:1025200003EB43039A002244126C29460398FFF7F9
:1025300087FEA36D03EB43039A001444226C2946E3
:102540003846FFF77DFE009B002B86DBA8EB0903D6
:10255000009A02EB83030A33009309F1FF3980E705
:1025600005B0BDE8F08F00BFD00B00202DE9F04F83
:1025700083B082468946154601925600C6F103068D
:102580002E4A936D03EB430399000A44106CFFF746
:1025900079FC002433E0AFB2AAEB070B1FFA8BFBE8
:1025A0001FFA84F87F00BFB208EB09013A4689B2EE
:1025B0005846FFF7A3FCA9EB08013A4689B25846F2
:1025C000FFF79CFC1FE0A7B2AAEB070B1FFA8BFBDF
:1025D0001FFA85F87F00BFB2A9EB08013A4689B21D
:1025E0005846FFF78BFC08EB09013A4689B258467A
:1025F000FFF784FC09E006EB840606360134AC42A2
:102600000BD8002DC7D1002CDDD1002EF3DB631BCE
:1026100006EB83060A36013DF0E7084A936D03EBAB
:10262000430399000A44106CFFF72CFC019A4946B9
:102630005046FFF705FF03B0BDE8F08FD00B002038
:102640002DE9F04782B082464FF00008CDF80480B3
:10265000214C0126266008276760A660C4F80C801C
:1026600004F110054FF6FF722146284602F0CFFA1A
:10267000304600F0FFF9022323606760A660C4F8CB
:102680000C804FF6FF722146284602F0C0FA032361
:10269000236067604FF00409C4F80890C4F80C8008
:1026A0004FF6FF722146284602F0B1FA4FF40C7340
:1026B0000193C4F800906760A660019BE3604FF649
:1026C000FF722146284602F0A2FA5146284602F03F
:1026D000BBFA02B0BDE8F0875C0C0020002800F0D7
:1026E000B48070B58EB0064600240194574B9A6BA7
:1026F00042F001029A639A6B02F001020192019A80
:1027000002941A6B42F480021A631A6B02F480027C
:102710000292029A03941A6B42F002021A631A6B35
:1027200002F002020392039A04941A6B42F004022C
:102730001A631A6B02F004020492049A05941A6B4D
:1027400042F008021A631A6B02F008020592059A19
:1027500006941A6B42F010021A631A6B02F0100210
:102760000692069A07941A6B42F020021A631A6BBB
:1027700002F020020792079A08941A6B42F0400276
:102780001A631B6B03F040030893089B02230A9310
:102790000C930B940C230D930EAD602345F8143D60
:1027A00029462B4800F06EFC01230993294629484D
:1027B00000F068FC4CF2037309932946264800F0A8
:1027C00061FC4FF6837309932946244800F05AFCB4
:1027D0004FF63F0309932946214800F053FC48F285
:1027E0003313099329461F4800F04CFC1E4B9C6490
:1027F0008022DA644FF400721A654FF480625A65E1
:102800004FF480529A654FF48042DA651C664FF4AB
:1028100000325A669C660322DA661C675C671D46B6
:10282000124A45F8442F3563DE67284600F066FA01
:10283000284600F0FDF922460F21382000F040F92B
:10284000382000F071F90EB070BD704700380240BA
:102850000004024000080240000C02400010024048
:1028600000140240001802405C0C0020106402407A
:1028700038B5204C204B23610223C4F8A430072133
:10288000C4F8A8100422C4F8AC20C4F8B010C4F8EE
:10289000B430C4F8B830C4F8BC30012363610021FF
:1028A000A161E26110232362402363624FF4C0738D
:1028B000A362E1624FF40063236361634FF400534A
:1028C000A36304F110052846FFF708FF04F1A401F3
:1028D000284602F07DF948B9084B00221A7040F2F0
:1028E0006A50FFF7ADFE054B187838BD034B012247
:1028F0001A70F4E75C0C0020400100A0C800002022
:1029000010B50C4B188059800B4B5B6882209847A0
:1029100040F6110398420BD1064C074B63601B68CD
:10292000822098476368DB6882209847002010BDAA
:102930000120FCE77C0D00206400002030B583B04E
:102940000446334B5B681B698220984780B2208025
:1029500000284DD02E4B5B685B6901AA0DF1060182
:1029600082209847BDF80430A3F5B4739BB2294A7E
:10297000A2FB0323DB08C3F5A0739BB22BB1244A4F
:1029800052889A4201D2531E9BB2BDF8062040F6EF
:10299000B8318A422ED8C2F571620E32ADF80620E7
:1029A000BDF806201C49A1FB0212D20805D0184927
:1029B0000988914201D24A1E92B210461449896890
:1029C0008A421DD989B2521A92B21D461049C9686D
:1029D0008B4219D989B25B1A9BB21A44052A02DDCF
:1029E0000B4B9860DD600A4B9A686280DB68A380BD
:1029F00003B030BDC2F56D620832ADF80620CFE7F6
:102A000089B28A1A92B2E0E789B2CB1A9BB2E4E7A4
:102A10007C0D0020A38B2EBA8988888808B50B4BC3
:102A20001A6842F400721A601A6842F480621A60EE
:102A30001A6842F480721A60032000F02FF8002018
:102A400004F070FB04F052FB002008BD003C024083
:102A5000034A1168034B1B780B441360704700BF97
:102A600098260020CC000020014B1868704700BF5A
:102A70009826002038B50446FFF7F6FF0546B4F166
:102A8000FF3F02D0044B1B781C44FFF7EDFF401BB7
:102A9000A042FAD338BD00BFCC000020074AD3685B
:102AA00023F4E0631B041B0C000200F4E0601843F5
:102AB00040F0BF6040F40030D060704700ED00E0AF
:102AC00030B4174BDB68C3F30223C3F10704042CB3
:102AD00028BF04241D1D062D18D9033B4FF0FF35D8
:102AE00005FA04F421EA0401994005FA03F322EA05
:102AF0000303194300280BDB0901C9B200F1604050
:102B000000F5614080F8001330BC70470023E5E712
:102B100000F00F000901C9B2024B1954F4E700BFDD
:102B200000ED00E014ED00E0002807DB00F01F02DC
:102B3000400901239340024A42F82030704700BF09
:102B400000E100E058B110B5044643791BB1012300
:102B50006371002010BD037103F07CFAF7E70120D8
:102B6000704700000268D3B2103B0B49A1FB03136E
:102B70001B090A49C95CC165032B06D822F47F7280
:102B800022F003028265806D704722F47F7222F08A
:102B9000030204328265F6E7ABAAAAAA4C0C01082C
:102BA000836A826992B9012B0AD01BB1022B01D032
:102BB00000207047C36A13F0807F2CD1002070473B
:102BC000C36AB3F1C07F28D000207047B2F5005F20
:102BD00005D0022B29D9032B15D000207047032BD9
:102BE00003D8DFE803F01C041C0A00207047C36A06
:102BF00013F0807F15D100207047C36AB3F1C07F06
:102C000011D000207047C36A13F0807F01D00120EB
:102C10007047002070470120704701207047012055
:102C20007047012070470120704701207047000065
:102C300070B50446FFF718FF002C5BD00546002353
:102C400084F83430022384F835302268136823F086
:102C50000103136023681A6812F0010F0AD0FFF70E
:102C600003FF401B0528F5D920236365032084F862
:102C7000350070BD1A68204810406168A2680A4398
:102C8000E1680A4321690A4361690A43A1690A4369
:102C9000E1690A43216A0A430243616A04291ED09A
:102CA0001A602668756925F00705636A1D43042BC1
:102CB00007D1A36A1D43E36A1BB12046FFF770FFEB
:102CC00090B975612046FFF74DFFE26D3F239340B9
:102CD000836000206065012384F83530C9E7E16A2C
:102CE000206B01430A43DBE740236365012084F83E
:102CF0003500BEE70120BCE73F8010F000282CD053
:102D000038B5044690F83530DBB2022B27D0026884
:102D1000136823F001031360036800251D60036836
:102D20005D6003689D600368DD6003681D61036882
:102D300021225A61FFF716FFE56325646564A564E7
:102D4000E5642565E26D3F2393408360656584F803
:102D5000355084F83450284638BD01207047022091
:102D6000FAE770B40668746C04F04044039D45EAC9
:102D700003431C4374640368DA634368B3F5403F5C
:102D800003D00368D96070BC704701F07F4601F43E
:102D90007F0301F47F45CAB2846894B1012C0ED040
:102DA000022C11D0032C17D0360F1B0D2D0B19023E
:102DB00041EA051141EA063141EA121101E021F030
:102DC0007F4103689963DEE7DB0CAD0AD90241EA73
:102DD000451141EAD201F4E7F60FDB0CED0A990246
:102DE00041EA451141EAC63141EAD201E9E748B377
:102DF00010B5044690F83930FBB1022384F839301D
:102E00002268136823F4403361680B43136022681F
:102E1000536B23F00703A1680B4353632268136CC1
:102E200023F47F5323F03F03E1680B431364002036
:102E3000E063012384F8393010BD80F8383003F0A6
:102E400041F9DAE70120704710B582B090F83840B8
:102E5000012C13D00446012084F83800022084F8A5
:102E60003900049800902046FFF77BFF2268136822
:102E700043F001031360002002B010BD0220FBE705
:102E800070B582B004460D460023019303681B68A9
:102E900013F0010F11D12268D369526A134313F062
:102EA000200F47D1236812229A60012384F8393019
:102EB000002084F8380002B070BDFFF7D5FD06464B
:102EC00023685A6812F0020FE5D15A680192019AFC
:102ED00012F0210F14D1B5F1FF3FF1D0FFF7C4FD7F
:102EE000801BA84201D8002DEAD1E36B43F02003F8
:102EF000E363032084F83900002384F83830DAE7EC
:102F0000019A12F0200F03D0E26B42F00202E2635A
:102F1000019A12F0010F03D0E26B42F00102E2636A
:102F200021229A60042384F83930002384F8383051
:102F30000120C0E7FFF798FD064623685A6812F0A3
:102F4000100FAFD15A680192019A12F0290F14D1D3
:102F5000B5F1FF3FF1D0FFF787FD801BA84201D8F4
:102F6000002DEAD1E36B43F02003E363032084F8F0
:102F70003900002384F838309DE7019A12F0080FD9
:102F800003D0E26B42F00402E263019A12F0200FD8
:102F900003D0E26B42F00202E263019A12F0010FE9
:102FA00003D0E26B42F00102E26329229A6004231B
:102FB00084F83930002384F8383001207BE70000A2
:102FC00090F83830012B59D030B4012380F83830D4
:102FD000022380F8393000EB0113DA698B1C1B01E6
:102FE000C35842EA0343093A012A1ED98A1C00EB5E
:102FF0000212526843EA026341BB0468656A204AD0
:103000002A4013436362026800EB01139C699461D8
:10301000DB69093B012B10D9012380F839300023EB
:1030200080F83830184630BC70478A1C00EB02121A
:10303000526802F07F421343DEE7023100EB0111D8
:103040004B68026823F07F439362E5E70468E56913
:103050000B4A2A401343E361026800EB01139C69A9
:103060001461DB69093B012BD6D8023100EB011159
:103070004B68026823F07F431362CDE7022070475C
:10308000F0FFFC0000230F2B00F2E380F0B583B0CB
:1030900039E0092200E00022AA403A4302346D4D93
:1030A00045F824206C4A1468F24302EA04054F688C
:1030B00017F4803F01D046EA0405674C2560646838
:1030C00002EA04054F6817F4003F01D046EA040500
:1030D000614C6560A46802EA04054F6817F4801F1C
:1030E00001D046EA04055C4CA560E46822404D68C6
:1030F00015F4001F01D046EA0402574CE260013388
:103100000F2B00F2A48001229A400C6804EA020608
:10311000B242F4D14C68651E012D03D9112C01D0A7
:10312000122C12D185685F000324BC4025EA0405F7
:10313000CC68BC402C438460456825EA02054C6895
:10314000C4F300129A402A434260C4685F0003221D
:10315000BA40D24314408D68BD402543C5604C68D9
:10316000022C01D0122C13D1DD08083550F825E0CF
:1031700003F007044FEA840C0F2404FA0CF42EEA3F
:10318000040E0C6904FA0CF444EA0E0440F82540DD
:10319000046822404C6804F00304BC4022430260EF
:1031A0004A6812F0805FAAD0002201922B4A546C28
:1031B00044F480445464526C02F480420192019AB7
:1031C0009C08A51C234A52F8257003F003029500C1
:1031D0000F22AA4027EA0207214A90423FF45BAF40
:1031E00002F58062904222D002F58062904220D0A7
:1031F00002F5806290421ED002F5806290421CD09F
:1032000002F5806290421AD002F58062904218D096
:1032100002F58062904216D002F58062904214D08E
:1032200002F5806290423FF434AF0A2234E7012273
:1032300032E7022230E703222EE704222CE70522A0
:103240002AE7062228E7072226E7082224E703B018
:10325000F0BD704700380140003C0140003802409A
:103260000000024000230F2B00F29480F0B529E00B
:10327000092700E0002707FA05F5B54271D0056877
:103280005E000324B440E44325400560DD080835B2
:1032900050F8256003F007074FEA870C0F2707FA5D
:1032A0000CF726EA070640F82560C5682540C5608A
:1032B000456825EA02024260826814408460013356
:1032C0000F2B66D801229A4002EA0104A242F6D1ED
:1032D0004FEA930E0EF102062F4D55F8266003F0CB
:1032E0000305AD004FF00F0C0CFA05FC0CEA0606C6
:1032F0002A4FB842BED007F58067B84221D007F503
:103300008067B8421FD007F58067B8421DD007F527
:103310008067B8421BD007F58067B84219D007F51F
:103320008067B84217D007F58067B84215D007F517
:103330008067B84213D007F58067B84298D00A2753
:1033400099E7012797E7022795E7032793E70427E3
:1033500091E705278FE706278DE707278BE70827E3
:1033600089E70F4D2E68E44326402E606E682640A4
:103370006E60AE682640AE60EE683440EC60064E8B
:103380000EF1020456F8245025EA0C0546F82450A4
:1033900075E7F0BD704700BF0038014000000240F3
:1033A000003C01400369194201D10020704701200F
:1033B000704712B9090481617047816170470368E1
:1033C0005A6912F4806F11D06FF480625A61002341
:1033D0000363202280F83D2080F83E30026C42F0EA
:1033E0000402026480F83C300120704700207047DE
:1033F000F8B506460C4617461D4622E0FFF734FB9B
:10340000069BC01AA84200D8DDB9002333632022EE
:1034100086F83D2086F83E30326C42F0200232645D
:1034200086F83C3001201AE033685B6924EA030324
:103430009BB2B3FA83F35B099F420FD1B5F1FF3F13
:10344000DCD1C4F30743012BEED033689B6924EA37
:1034500003039BB2B3FA83F35B09EDE70020F8BDE9
:10346000F8B504460D4616461F463CE01A6842F47D
:1034700000721A6023686FF480625A61002323632C
:10348000202284F83D2084F83E30226C42F0040271
:10349000226484F83C30012033E0FFF7E5FAC01BDA
:1034A000B04200D8FEB900232363202284F83D20D7
:1034B00084F83E30226C42F02002226484F83C30D2
:1034C00001201EE023685B6925EA03039BB20033F9
:1034D00018BF0123A3B123685A6912F4806FC5D1C4
:1034E000B6F1FF3FD9D1C5F30743012BEAD02368DA
:1034F0009B6925EA03039BB2003318BF0123E9E768
:103500000020F8BD70B504460D46164623685B6979
:1035100013F0800F1CD12046FFF751FFD0B9B5F151
:10352000FF3FF3D0FFF7A0FA801BA84201D8002D7F
:10353000ECD100232363202284F83D2084F83E3020
:10354000226C42F02002226484F83C30012000E02A
:10355000002070BD0120FCE72DE9F04184B0044655
:10356000884616461F460B9D0268136843F4807315
:10357000136000950A9B00224FF00111FFF738FFFE
:1035800060B123681B6813F4807F4FD04FF4007341
:1035900023640323184604B0BDE8F081226808F0D4
:1035A000FE0313612B460A9A21492046FFF758FF74
:1035B00008B10123EEE70023039323685A690392BD
:1035C0009B690393039B2A460A992046FFF79AFFBB
:1035D000034658B1236C042B01D00123DAE722689B
:1035E000136843F4007313600123D3E7012F0ED057
:1035F0002368320A1A612A460A992046FFF782FF99
:10360000034678B1236C042B05D00123C2E722685E
:10361000F6B21661BEE72268136843F400731360C4
:103620000123B7E72268F6B21661B3E70323B1E7D7
:10363000020001002DE9F04184B004460E46174611
:1036400098460B9D0268136843F480631360026818
:10365000136843F48073136000950A9B00224FF0B7
:103660000111FFF7C5FE68B123681B6813F4807F62
:1036700000F089804FF4007323640323184604B0DC
:10368000BDE8F081F6B2236806F0FE021A612B460F
:103690000A9A3F492046FFF7E3FE08B10123EDE710
:1036A0000023039323685A6903929B690393039B46
:1036B0002A460A992046FFF725FF58B1236C042BB0
:1036C00001D00123DAE72268136843F40073136022
:1036D0000123D3E7B8F1010F0DD12368FFB21F61B9
:1036E0002A460A992046FFF70DFF20B3236C042BCE
:1036F0001AD00123C2E723683A0A1A612A460A99B6
:103700002046FFF7FFFE58B1236C042B01D00123A4
:10371000B4E72268136843F4007313600123ADE734
:103720002368FFB21F61DBE72268136843F400736C
:1037300013600123A2E72268136843F480731360C7
:1037400000950A9B00224FF001112046FFF750FE22
:1037500048B123681B6813F4807F16D04FF40073C0
:10376000236403238AE7236846F001061E612B4683
:103770000A9A07492046FFF773FE034600283FF4E4
:103780007DAF01237AE7032378E7032376E700BFC1
:103790000200010070B504460D46164623685B69B9
:1037A00013F0040F1CD12046FFF709FED0B9B5F184
:1037B000FF3FF3D0FFF758F9801BA84201D8002D36
:1037C000ECD100232363202284F83D2084F83E308E
:1037D000226C42F02002226484F83C30012000E098
:1037E000002070BD0120FCE770B505460C4616466A
:1037F0002B685A6912F0400F29D15A6912F0100F44
:1038000015D1FFF731F9801BA04201D8002CEFD170
:1038100000232B63202285F83D2085F83E302A6C5A
:1038200042F020022A6485F83C30012070BD6FF020
:1038300010025A6100232B63202285F83D2085F871
:103840003E302A6C2A6485F83C300120EEE70020E7
:10385000ECE70000002800F0C880F8B5044690F8B6
:103860003D30002B75D0242384F83D302268136846
:1038700023F0010313602268136843F400431360CC
:103880002268136823F40043136001F01FF8626894
:10389000584B9A4262D8584B98428CBF0023012360
:1038A000002B40F0A480554BA3FB00239B0C216808
:1038B0004A6822F03F021A434A6025682A6A22F0C9
:1038C0003F0266684B498E424ED8013313432B6248
:1038D0002568E96921F44F4121F0FF016368454AF9
:1038E00093424BD801385B00B0FBF3F30133C3F3D1
:1038F0000B03042B38BF04230B43EB6121680B68D7
:1039000023F0C003E269206A024313430B6021687D
:103910008B6823F4034323F0FF032269E06802432A
:1039200013438B602168CB6823F0FF036269A069B1
:1039300002431343CB602268136843F00103136012
:1039400000202064202384F83D30206384F83E006A
:10395000F8BD80F83C3002F08FFD84E7284B984298
:103960008CBF002301239BE74FF4967101FB03F307
:103970002449A1FB03139B090133A7E7A268BAB945
:10398000461E03EB4307B6FBF7F60136C6F30B06FC
:10399000B6FA86F6760936BBC2B9013803EB4303A3
:1039A000B0FBF3F30133C3F30B0242F40043A3E78C
:1039B000461E03EB830707EB8707B6FBF7F60136D6
:1039C000C6F30B06B6FA86F67609E4E7013803EB90
:1039D000830303EB8303B0FBF3F20132C2F30B0268
:1039E00042F4404388E7012386E701207047012025
:1039F000AEE700BFA08601007F841E0083DE1B436C
:103A0000FF083D00D34D6210A8B110B50446242331
:103A100080F83D300268136823F00103136002F060
:103A20007FFD0020206484F83D00206384F83E0080
:103A300084F83C0010BD0120704700002DE9F041E2
:103A400082B004460E4617469846FFF70DF894F8E4
:103A50003D30DBB2202B04D00223184602B0BDE873
:103A6000F08105460090192301224C492046FFF7BA
:103A7000BFFC002840F08B8094F83C30012B00F014
:103A80008880012384F83C3023681A6812F0010F03
:103A900003D11A6842F001021A602268136823F405
:103AA00000631360212384F83D30402384F83E30C6
:103AB00000232364089B6362BDF824306385638D13
:103AC0002385374BE36201950A9B009343463A46B0
:103AD00031462046FFF740FD00285CD1238D002BA6
:103AE00034D02A460A992046FFF70CFD10BB626AC3
:103AF000236812781A61616A4B1C6362238D013B53
:103B00009BB22385628D013A92B262852268506928
:103B100010F0040FE2D0002BE0D04B781361636A01
:103B200001336362238D013B2385638D013B9BB28F
:103B30006385D3E7236C042B01D001238DE7226832
:103B4000136843F400731360012386E72A460A9939
:103B50002046FFF71FFE034658B1236C042B01D00B
:103B600001237AE72268136843F40073136001238A
:103B700073E721680A6842F400720A60202284F820
:103B80003D20002284F83E2084F83C2065E7022393
:103B900063E7022361E701235FE700BF0200100033
:103BA0000000FFFF2DE9F04186B004460E4617469F
:103BB0009846FEF759FF94F83D30DBB2202B04D035
:103BC0000226304606B0BDE8F08105460090192374
:103BD00001229E492046FFF70BFC002840F034816B
:103BE00094F83C30012B00F03781012384F83C30FD
:103BF00023681A6812F0010F03D11A6842F001021B
:103C00001A602268136823F400631360222384F887
:103C10003D30402384F83E30002323640C9B6362D4
:103C2000BDF834306385638D2385894BE36201954C
:103C30000E9B009343463A4631462046FFF7FAFC76
:103C40000646002840F00A81238D5BB90293236861
:103C50005A6902929A690292029A1A6842F40072B0
:103C60001A6072E0012B0AD0022B1AD000230593B0
:103C700023685A6905929B690593059B65E0226854
:103C8000136823F4806313600023039323685A6945
:103C900003929A690392039A1A6842F400721A60B6
:103CA00053E02268136823F480631360226813686A
:103CB00043F4006313600023049323685A69049259
:103CC0009B690493049B40E02A460E992046FFF727
:103CD0008BFD002840F0C48023681A69636A1A705B
:103CE000636A01336362238D013B2385638D013B4E
:103CF0009BB2638529E000950E9B00225549204622
:103D0000FFF776FB002840F0AD802268136843F48B
:103D10000073136023681A69636A1A70626A531C1D
:103D20006362238D013B2385638D013B9BB26385D9
:103D300023681B695370636A01336362238D013BFF
:103D40002385638D013B9BB26385238D002B72D04D
:103D5000032B49D8012BB7D0022BCCD000950E9B5A
:103D600000223C492046FFF743FB00287CD1226813
:103D7000136823F48063136023681A69636A1A70F6
:103D8000636A01336362238D013B2385638D013BAD
:103D90009BB2638500950E9B00222E492046FFF7BB
:103DA00027FB002862D12268136843F40073136074
:103DB00023681A69636A1A70626A531C6362238DEE
:103DC000013B2385638D013B9BB2638523681B699F
:103DD0005370636A01336362238D013B2385638DD6
:103DE000013B9BB26385B0E72A460E992046FFF758
:103DF000FBFC00283CD123681A69636A1A70626A66
:103E0000531C6362238D013B2385638D013B9BB271
:103E100063852368596911F0040F96D01B695370AC
:103E2000636A01336362238D013B2385638D013B0C
:103E30009BB2638589E7202384F83D30002384F812
:103E40003E3084F83C30BCE60226BAE602001000A0
:103E50000000FFFF040001000226B2E60126B0E6E2
:103E60000126AEE60126ACE60126AAE60126A8E672
:103E70000126A6E690F83D00704790F83D30DBB291
:103E8000202B1AD1242380F83D300268136823F0D8
:103E9000010313600268536A23F01003536202683F
:103EA000536A194351620268136843F001031360B7
:103EB000202380F83D30002070470220704790F8A2
:103EC0003D30DBB2202B19D1242380F83D3002682D
:103ED000136823F0010313600268536A9BB223F056
:103EE0000F03194389B251620268136843F001035A
:103EF0001360202380F83D30002070470220704777
:103F0000F0B44D680468E368C3F30B431D44D20169
:103F10001444D4F8883003F47043C4F888300B6834
:103F20000468E668C6F30B4633440133144443EA9D
:103F30000543C4F88830CD680468E368C3F30A0316
:103F40001D441444D4F88C3003F47043C4F88C300E
:103F50008B680468E668C6F30A06334401331444E8
:103F600043EA0543C4F88C3003681344D3F8944003
:103F700024F00704C3F89440036813440C69C3F8A1
:103F8000944091F831C091F832708E6905681544FB
:103F9000D5F89C300024C5F89C4091F8303043EAB5
:103FA0000C2343EA07430568154443EA0663C5F852
:103FB0009C3003681344D3F8985025F0FF05C3F8EC
:103FC0009850036813444D69C3F89850036813442C
:103FD000D3F8A05025F4E06525F00705C3F8A050FC
:103FE000CD690E6A036813443543C3F8A0500368D3
:103FF0001344D3F8AC50C3F8AC40036813444C6A84
:10400000C3F8AC400B696BB1012B3CD0042B3CD006
:10401000022B08D0032B3AD0072B01D0012302E05A
:10402000022300E0042304681444D4F8B05005F0DF
:10403000E025C4F8B0508C6A03FB04F54C680E68A8
:10404000A41B03FB04F303330468144443EA05434D
:10405000C4F8B03003681344D3F8B44024F4FF64C8
:1040600024F00704C3F8B44003681344C96AC3F8D2
:10407000B41003681A44D2F8843043F00103C2F844
:104080008430F0BC70470323CDE70223CBE7022343
:10409000C9E70000002872D038B5044690F8A13076
:1040A000002B67D0022384F8A1302268936923F0A3
:1040B0007043936121688A696368A0680343E0687C
:1040C00003432069034313438B6121688A682D4BA6
:1040D0001A408A60656920688268A16941EA0541E1
:1040E0000A4382602168CA681A40CA60E56920688C
:1040F000C268216A41EA05410A43C26021680A692F
:104100001A400A61656A20680269A16A41EA0541AC
:104110000A43026121684A6913404B61E06A2168E1
:104120004B69226B42EA004213434B6194F835001D
:1041300094F836301B042168CA6A02F07F42CA62D2
:104140002168CA6A43EA002394F834000343134306
:10415000CB622268536B43F0060353632268936972
:1041600043F0010393610020C4F8A400012384F804
:10417000A13038BD80F8A03002F070FA92E701203B
:10418000704700BF00F800F090F8A030012B27D056
:104190002DE9F04194460F4606464FF0010880F89D
:1041A000A080022380F8A130342404FB02043834B8
:1041B0000D460FCD0FC40FCD0FC40FCD0FC42B680C
:1041C0002360624639463046FFF79AFE3368C3F8EB
:1041D000248086F8A180002086F8A000BDE8F08148
:1041E0000220704790F8A030012B1DD030B401247C
:1041F00080F8A040022380F8A1300368D201134464
:10420000D3F8905005F07F45C3F8905003681A44E6
:10421000C2F8901003685C6280F8A140002380F827
:10422000A030184630BC70470220704790F8A0308C
:10423000012B17D0012280F8A020022380F8A130A2
:10424000036803EBC111D1F8843043F00203C1F8D5
:10425000843003685A6280F8A120002380F8A030DF
:10426000184670470220704790F8A030012B11D0FB
:10427000012280F8A020022380F8A13006498B6932
:1042800043F480338B6180F8A120002380F8A030B4
:10429000184670470220704700680140002800F06F
:1042A000E48170B582B00446036813F0010F3BD07F
:1042B000A74B9B6803F00C03042B2CD0A44B9B68EA
:1042C00003F00C03082B21D06368B3F5803F4FD077
:1042D000B3F5A02F52D09E4B1A6822F480321A6098
:1042E0001A6822F480221A606368002B50D0FEF70F
:1042F000BBFB0546964B1B6813F4003F14D1FEF739
:10430000B3FB401B6428F5D90320B3E1904B5B68F5
:1043100013F4800FD8D08E4B1B6813F4003F03D0EA
:104320006368002B00F0A381236813F0020F55D0BF
:10433000874B9B6813F00C0F3ED0854B9B6803F0B6
:104340000C03082B33D0E368002B68D0814B01228B
:104350001A60FEF789FB05467D4B1B6813F0020FC0
:1043600054D1FEF781FB401B0228F5D9032081E1DF
:10437000774A136843F480331360B5E7744B1A68C7
:1043800042F480221A601A6842F480321A60ABE765
:10439000FEF76AFB05466E4B1B6813F4003FC3D063
:1043A000FEF762FB401B6428F5D9032062E1684BED
:1043B0005B6813F4800FC6D1654B1B6813F0020FC6
:1043C00004D0E368012B01D0012053E1604A136857
:1043D00023F0F803216943EAC1031360236813F053
:1043E000080F40D0636963B35B4B01221A60FEF78C
:1043F0003BFB0546564B5B6F13F0020F33D1FEF7C4
:1044000033FB401B0228F5D9032033E1504A1368DF
:1044100023F0F803216943EAC1031360DEE74D4B43
:1044200000221A60FEF720FB0546494B1B6813F07B
:10443000020FD3D0FEF718FB401B0228F5D903204A
:1044400018E1454B00221A60FEF70EFB0546404B73
:104450005B6F13F0020F06D0FEF706FB401B02282D
:10446000F5D9032006E1236813F0040F79D0384B07
:104470001B6C13F0805F33D100230193344B1A6C13
:1044800042F080521A641B6C03F080530193019B2D
:104490000125324B1B6813F4807F23D0A368012BC6
:1044A00034D0052B38D02A4B1A6F22F001021A673C
:1044B0001A6F22F004021A67A368002B36D0FEF7A9
:1044C000D3FA0646224B1B6F13F0020F48D1FEF7BA
:1044D000CBFA801B41F288339842F3D90320C9E01C
:1044E0000025D6E71D4A136843F480731360FEF776
:1044F000BBFA0646194B1B6813F4807FCED1FEF73A
:10450000B3FA801B0228F5D90320B3E0104A136FD9
:1045100043F001031367CFE70D4B1A6F42F004021B
:104520001A671A6F42F001021A67C5E7FEF79CFA94
:104530000646074B1B6F13F0020F11D0FEF794FADB
:10454000801B41F288339842F3D9032092E000BFE8
:104550000038024000004742800E47420070004091
:10456000EDB9A369002B00F08480454A926802F0FF
:104570000C02082A51D0022B17D0424B00221A609D
:10458000FEF772FA04463E4B1B6813F0007F42D0E0
:10459000FEF76AFA001B0228F5D903206AE0384AC0
:1045A000136C23F080531364DBE7364B00221A6050
:1045B000FEF75AFA0546324B1B6813F0007F06D00F
:1045C000FEF752FA401B0228F5D9032052E0E369B6
:1045D000226A1343626A43EA8213A26A5208013ACA
:1045E00043EA0243E26A43EA0263254A5360254BE9
:1045F00001221A60FEF738FA0446214B1B6813F0BB
:10460000007F06D1FEF730FA001B0228F5D90320FF
:1046100030E000202EE000202CE0012B2CD0184BA5
:104620005B6803F48001E269914201D0012021E03E
:1046300003F03F02216A8A4201D001201AE0616A38
:1046400047F6C0721A408A4201D0012012E003F4FA
:104650004032A16A8A4201D001200BE003F070636E
:10466000E26A93420AD0012004E001207047012051
:1046700000E0002002B070BD0120FBE70020F9E758
:104680000038024060004742324B9B6803F00C0345
:10469000042B5CD0082B01D02F4870472DE9F04B3C
:1046A0002C4B5A6802F03F025B6813F4800F2BD04A
:1046B000284B5B68C3F388131E4600275C01002566
:1046C000E41A65EB0705A90141EA9461A001001B0A
:1046D00061EB0501CB0043EA5073C400A01943EB22
:1046E00007014B0243EAD0534402204619460023F7
:1046F000FCF79CF9174B5B68C3F3014301335B0084
:10470000B0FBF3F0BDE8F08B124B5B68C3F388138A
:104710001E4600275C010025E41A65EB0705A90188
:1047200041EA9461A001001B61EB0501CB0043EA63
:104730005073C400A01943EB07018B0243EA905366
:104740008402204619460023FCF770F9D2E703489B
:10475000704700BF003802400024F40000127A00C5
:10476000002800F09E8070B50446504B1B6803F093
:104770000F038B4209D2CBB24C4A1370136803F07B
:104780000F038B4201D0012070BD236813F0020F8C
:1047900017D013F0040F04D0454A936843F4E05354
:1047A0009360236813F0080F04D0414A936843F4E0
:1047B000604393603E4A936823F0F003A06803438C
:1047C00093600D46236813F0010F32D06368012B0C
:1047D00021D09A1E012A25D9354A126812F0020FFB
:1047E00061D033498A6822F0030213438B60FEF7DD
:1047F0003BF906462E4B9B6803F00C036268B3EB53
:10480000820F16D0FEF730F9801B41F288339842B0
:10481000F0D90320B8E7264A126812F4003FE0D12D
:104820000120B1E7224A126812F0007FD9D101209D
:10483000AAE71E4B1B6803F00F03AB4209D9EAB28B
:104840001A4B1A701B6803F00F03AB4201D0012012
:104850009AE7236813F0040F06D0154A936823F4EF
:10486000E053E1680B439360236813F0080F07D00F
:104870000F4A936823F46043216943EAC1039360BC
:10488000FFF702FF0A4B9B68C3F30313094AD35C8B
:10489000D840094B1860094B186802F043FC00200F
:1048A00072E70120704701206EE700BF003C024024
:1048B00000380240E41701087C090020D0000020E5
:1048C000014B1868704700BF7C09002008B5FFF74E
:1048D000F7FF044B9B68C3F38223034AD35CD840A1
:1048E00008BD00BF00380240F417010808B5FFF703
:1048F000E7FF044B9B68C3F34233034AD35CD840C1
:1049000008BD00BF00380240F41701080F23036000
:104910000B4B9A6802F0030242609A6802F0F002C0
:1049200082609A6802F4E052C2609B68DB0803F47C
:10493000E0530361034B1B6803F00F030B607047E8
:1049400000380240003C024030B583B004460368A2
:1049500013F0430F14D1236813F00C0F69D12368AF
:1049600013F0200F40F0BE80236813F0100F00F00A
:10497000208194F82C20904B1A60002003B030BDA9
:104980008E4B00221A60FEF76FF805468C4B1B68B1
:1049900013F0006F06D0FEF767F8401B0228F5D928
:1049A0000320EBE7236813F0010F07D06268A368C8
:1049B0001B0743EA8213824AC2F88430236813F04B
:1049C000020F15D07E4AD2F884106068E3681B0697
:1049D00043EA801301F0E0410B43C2F88430D2F87F
:1049E0008C3023F01F03E16901390B43C2F88C308E
:1049F000236813F0400F0AD06268E3681B0643EA9D
:104A00008213A26843EA02736D4AC2F884306B4B8A
:104A100001221A60FEF728F80546694B1B6813F05F
:104A2000006F98D1FEF720F8401B0228F5D903202B
:104A3000A4E7644B00221A60FEF716F80546604BA7
:104A40001B6813F0005F06D0FEF70EF8401B02282B
:104A5000F5D9032092E7236813F0040F16D0584AC3
:104A6000D2F88810206963691B0643EA801301F0BD
:104A7000E0410B43C2F88830D2F88C3023F4F8536D
:104A8000216A013943EA0123C2F88C30236813F00C
:104A9000080F14D04A4AD2F88830216903F07063B5
:104AA00043EA8113A16943EA0173C2F88830D2F85E
:104AB0008C3023F44033616A0B43C2F88C30414B95
:104AC00001221A60FDF7D0FF05463D4B1B6813F02D
:104AD000005F7FF444AFFDF7C7FF401B0228F4D905
:104AE00003204BE700230193354B1A6C42F08052B0
:104AF0001A641B6C03F080530193019B324A1368C4
:104B000043F480731360FDF7AFFF05462E4B1B681F
:104B100013F4807F06D1FDF7A7FF401B0228F5D9CB
:104B200003202BE7264B1B6F13F4407312D0A26AAD
:104B300002F440729A420DD0214B1A6F22F4407257
:104B4000224901200860002008601A671B6F13F0DB
:104B5000010F12D1A36A03F44072B2F5407F1DD059
:104B6000174A936823F4F813936015490B6FA26AF0
:104B7000C2F30B0213430B67F6E6FDF775FF05461C
:104B80000F4B1B6F13F0020FE4D1FDF76DFF401BBD
:104B900041F288339842F3D90320EFE608498A6846
:104BA00022F4F81223F0704323F4407313438B6014
:104BB000DBE70020E2E600BFE01147426800474221
:104BC000003802407000474200700040400E4742EB
:104BD000D8B138B504460D4690F82C3083B1022385
:104BE00084F82C30211D206801F087F8626829467E
:104BF000206801F0BEF8012384F82C30002038BD75
:104C000080F82D3001F01CFBE9E70120704738B532
:104C100090F82C30DBB2022B14D00D460446022350
:104C200080F82C30006801F0EFF82B68022B04D0DC
:104C3000012384F82C30002038BD052384F82C3063
:104C40000020F9E70220F7E790F82C30DBB2022BC6
:104C50000CD010B50446022380F82C30006801F017
:104C6000FDF8012384F82C30002010BD022070478D
:104C7000F8B505460F4616461C462B689B6837EA72
:104C800003030CBF01230023B34237D0B4F1FF3F2D
:104C9000F3D0FDF7E9FE069BC01AA04201D2002C1A
:104CA000EBD12A68536823F0E00353606B68B3F5D7
:104CB000827F0BD0AB6AB3F5005F14D0012385F877
:104CC0005130002385F85030032018E0AB68B3F56D
:104CD000004F02D0B3F5806FECD12A68136823F03F
:104CE00040031360E6E72A68136823F40053136057
:104CF0002A68136843F400531360DFE70020F8BD0F
:104D000030B585B0164C2468164DA5FB0434640DEF
:104D10004FF47A7505FB04F403944468B4F5827F7C
:104D20000BD0039BC3B1039B013B039303689B68B8
:104D300013F0800FF5D100230FE00B4604460092DC
:104D400000228021FFF794FF034630B1636D43F0EA
:104D500020036365032300E00023184605B030BD3F
:104D60007C090020819F5E1610B582B00446406821
:104D7000B0F5827F16D06068B0F5827F2ED1A3682F
:104D8000B3F5806F1BD000920B4600228021204695
:104D9000FFF76EFF034650B3636D43F02003636576
:104DA000032324E0A368B3F5004F02D0B3F5806F6E
:104DB000E1D12068036823F040030360DBE7009241
:104DC0000B46002201212046FFF752FF034670B137
:104DD000636D43F020036365032308E000920B46F4
:104DE000002201212046FFF743FF034610B9184671
:104DF00002B010BD636D43F0200363650323F6E743
:104E000000283BD010B504460023836290F851304F
:104E1000002B2ED0022384F851302268136823F02F
:104E2000400313606368A2681343E2681343226976
:104E3000134362691343A26902F400721343E269E7
:104E40001343226A1343A16A22680B431360638BE6
:104E500003F00403616A22680B4353602268D3693C
:104E600023F40063D36100206065012384F851308E
:104E700010BD80F8503002F0EBF8CBE7012070470E
:104E800090B110B50446022380F8513002681368CF
:104E900023F04003136002F011F90020606584F8EC
:104EA000510084F8500010BD012070472DE9F041F9
:104EB00082B090F85040012C00F0C3801D46174688
:104EC00088460446012380F85030FDF7CDFD0646A4
:104ED00094F85130DBB2012B09D00220012384F871
:104EE0005130002384F8503002B0BDE8F081B8F1B1
:104EF000000F00F09880002F00F09780032384F8C3
:104F0000513000236365C4F83080A786E786A36329
:104F1000A387E38763642364A368B3F5004F1CD0C1
:104F200023681A6812F0400F03D11A6842F0400259
:104F30001A60E368B3F5006F15D063680BB1012FF9
:104F400049D1226B236812781A73236B01332363D0
:104F5000E38E013B9BB2E3863DE02268136843F495
:104F600080431360DCE763680BB1012F15D1226B1E
:104F700023681288DA60236B02332363E38E013BDC
:104F80009BB2E38609E0FDF76FFD801BA84202D3C8
:104F9000B5F1FF3F4BD1002D4BD0E38E9BB2002BE0
:104FA0002CD023689A6812F0020FECD0226B128882
:104FB000DA60236B02332363E38E013B9BB2E3860B
:104FC000EBE7FDF751FD801BA84202D3B5F1FF3F8F
:104FD00031D1002D31D0E38E9BB27BB123689A682A
:104FE00012F0020FEDD0226B12781A73236B01338B
:104FF0002363E38E013B9BB2E386ECE7324629460E
:105000002046FFF77DFE08B120236365A36833B90E
:1050100001932368DA6801929B680193019B636D99
:105020006BB900205AE7012058E7012056E703201A
:1050300054E7032052E7032050E703204EE7012006
:105040004CE7022050E72DE9F04383B0DDF82880DB
:1050500090F85040012C00F00B811D4617460E467B
:105060000446012380F85030FDF7FEFC814694F899
:105070005100C0B26368012815D0B3F5827F0AD011
:105080000223012284F85120002284F8502018467F
:1050900003B0BDE8F083A368002B40F0DB80042858
:1050A00001D00223EDE7002E00F0D680002F00F0A3
:1050B000D580002D00F0D48094F85130DBB2042B61
:1050C00002D0052384F8513000236365A763E58788
:1050D000A5872663E586A5862364636423681A682A
:1050E00012F0400F03D11A6842F040021A60E368E0
:1050F000B3F5006F10D063680BB1012D0AD1226B9C
:10510000236812781A73236B01332363E38E013B08
:105110009BB2E386012569E063680BB1012D0AD1DA
:10512000226B23681288DA60236B02332363E38ED9
:10513000013B9BB2E38601251BE023689A6812F0CD
:10514000010F0DD0E28F92B252B1DA68A36B1A80D0
:10515000A36B0233A363E38F013B9BB2E38701257B
:10516000FDF782FCA0EB0900404502D3B8F1FF3FF8
:1051700078D1E38E9BB21BB9E38F9BB2002B52D048
:1051800023689A6812F0020FD7D0E28E92B2002AFA
:10519000D3D0002DD1D0226B1288DA60236B02337A
:1051A0002363E38E013B9BB2E3860025C5E72368BA
:1051B0009A6812F0010F0DD0E28F92B252B1DA6804
:1051C000A36B1A70A36B0133A363E38F013B9BB204
:1051D000E3870125FDF748FCA0EB0900404502D319
:1051E000B8F1FF3F40D1B8F1000F3FD0E38E9BB242
:1051F00013B9E38F9BB2B3B123689A6812F0020F20
:10520000D5D0E28E92B2002AD1D0002DCFD0226B21
:1052100012781A73236B01332363E38E013B9BB235
:10522000E3860025C3E74A4641462046FFF768FD6E
:10523000034618B120236365012322E7A268002AF0
:105240007FF41FAF01922268D168019192680192A8
:10525000019A16E7022314E7012312E7012310E75E
:1052600001230EE703230CE703230AE7032308E7E0
:1052700002230CE72DE9F04182B004460F46904628
:105280001D464368B3F5827F19D094F85030012B46
:1052900000F09F80012384F85030FDF7E5FB0646BF
:1052A00094F85130DBB2012B15D00220012384F891
:1052B0005130002384F8503002B0BDE8F08183689B
:1052C000002BE2D1042380F85130009513460A46A2
:1052D000FFF7B9FEF0E7002F6DD0B8F1000F6CD0EA
:1052E000042384F8513000236365A763A4F83C804D
:1052F000A4F83E802363A386E38623646364A368E3
:10530000B3F5004F0BD023681A6812F0400F03D199
:105310001A6842F040021A60E36883B12CE0226808
:10532000136823F480431360EDE7FDF79DFB801BBA
:10533000A84202D3B5F1FF3F41D1002D41D0E38F08
:105340009BB2002B2BD023689A6812F0010FECD08F
:10535000A26B1B7B1370A36B0133A363E38F013B31
:105360009BB2E387EBE7FDF77FFB801BA84202D3EC
:10537000B5F1FF3F27D145B3E38F9BB27BB12368E3
:105380009A6812F0010FEED0DA68A36B1A80A36B53
:105390000233A363E38F013B9BB2E387ECE7324622
:1053A00029462046FFF7E0FC08B120236365636DC2
:1053B0006BB900207AE7012078E7012076E7032027
:1053C00074E7032072E7032070E703206EE70120F3
:1053D0006CE7022070E790F85100704710B4036A40
:1053E000046A24F001040462846924F0F00444EAAD
:1053F000021223F00A030B43826103625DF8044B3F
:10540000704710B4036A23F0100303628469036ACF
:1054100024F4704444EA023223F0A00343EA011367
:10542000826103625DF8044B7047836823F0700368
:10543000194341F00701816070470268D36843F067
:105440000103D3600268936803F00703062B03D0BF
:10545000136843F0010313600020704770477047E2
:105460007047704710B5044603681A6912F0020FBE
:1054700011D0DA6812F0020F0DD06FF002021A613B
:105480000123037703689B6913F0030F70D0FFF7C4
:10549000E6FF0023237723681A6912F0040F12D065
:1054A000DA6812F0040F0ED06FF004021A610223C2
:1054B000237723689B6913F4407F5FD02046FFF772
:1054C000CEFF0023237723681A6912F0080F12D049
:1054D000DA6812F0080F0ED06FF008021A61042388
:1054E00023772368DB6913F0030F4ED02046FFF7C4
:1054F000B6FF0023237723681A6912F0100F12D029
:10550000DA6812F0100F0ED06FF010021A61082343
:1055100023772368DB6913F4407F3DD02046FFF7F3
:105520009EFF0023237723681A6912F0010F03D02E
:10553000DA6812F0010F36D123681A6912F0800F71
:1055400003D0DA6812F0800F34D123681A6912F0A0
:10555000400F03D0DA6812F0400F32D123681A6985
:1055600012F0200F03D0DA6812F0200F30D110BDF6
:10557000FFF774FF2046FFF773FF8AE72046FFF727
:105580006DFF2046FFF76CFF9BE72046FFF766FFA5
:105590002046FFF765FFACE72046FFF75FFF204698
:1055A000FFF75EFFBDE76FF001021A61204601F0D0
:1055B00017FCC1E76FF080021A61204600F04BF93A
:1055C000C3E76FF040021A612046FFF74AFFC5E7C4
:1055D0006FF020021A61204600F03CF9C7E7000096
:1055E0000368304A904212D0B0F1804F0FD0A2F53C
:1055F0007C4290420BD002F58062904207D002F5C7
:105600008062904203D002F57842904203D123F0A9
:1056100070034A681343234A90422AD0B0F1804F66
:1056200027D0A2F57C42904223D002F580629042BE
:105630001FD002F5806290421BD002F57842904262
:1056400017D002F57052904213D002F5806290425A
:105650000FD002F5806290420BD0A2F598329042B2
:1056600007D002F58062904203D002F5806290423A
:1056700003D123F44073CA68134323F080034A69BB
:10568000134303608B68C3620B688362054B9842C7
:1056900003D003F58063984201D10B6903630123B2
:1056A0004361704700000140A8B110B5044690F86E
:1056B0003D305BB1022384F83D30211D2068FFF7A7
:1056C0008FFF012384F83D30002010BD80F83C306E
:1056D00001F002FEEEE70120704710B4846824F464
:1056E0007F4442EA03230B43234383605DF8044B6A
:1056F000704790F83C30012B66D010B5044601236A
:1057000080F83C30022380F83D300268936823F42F
:105710007F4323F0770393600B68402B4AD013D963
:10572000602B3DD01ED9702B28D0B3F5005F30D14F
:10573000CB684A6889680068FFF7CFFF22689368E2
:1057400043F48043936024E0102B06D004D9202B2F
:1057500003D0302B01D01CE0DBB919462068FFF7DD
:1057600064FE16E0502B14D1CA6849680068FFF740
:1057700035FE50212068FFF758FE0AE0CB684A68E2
:1057800089680068FFF7A9FF2268936843F07703F0
:105790009360012384F83D30002084F83C0010BD64
:1057A000CA6849680068FFF72CFE60212068FFF78F
:1057B0003CFEEEE7CA6849680068FFF70FFE40212B
:1057C0002068FFF732FEE4E70220704790F83C3093
:1057D000012B3BD030B4012380F83C30022380F809
:1057E0003D3003685C689D6824F070040A682243B9
:1057F0005A600368164A93421AD0B3F1804F17D00B
:10580000A2F57C42934213D002F5806293420FD0FE
:1058100002F5806293420BD002F57842934207D0A2
:1058200002F57052934203D0A2F59432934204D110
:1058300025F080054A6815439D60012380F83D30BE
:10584000002380F83C30184630BC70470220704777
:1058500000000140704770472DE9F04B0446026894
:10586000136923F44053C1680B43136183680269D1
:10587000134342691343C2691A430168CB6823F496
:10588000164323F00C031343CB600268536923F4DF
:10589000407381690B435361C369B3F5004F3BD03B
:1058A0000368714A934200F0AB8002F58062934234
:1058B00000F0A680FFF70AF84FF00009061849EB40
:1058C000090716EB000B47EB090C4FEACC0343EA40
:1058D0005B734FEACB0293469C4663689A009B0F2A
:1058E00010EB0B0049EB0C01FBF7A0F85F4DA5FB9B
:1058F00000325109642202FB110213013233A5FB6D
:1059000003235B0903F0F00202EB011203F00F0323
:10591000216813448B60A4E00368534A934239D052
:1059200002F58062934235D0FEF7D0FF83464FF0F8
:10593000000C06184CEB0C0716EB000847EB0C09A3
:105940004FEAC90343EA58734FEAC80290469946A2
:1059500062680021921841EB01031BEB08004CEB3D
:105960000901FBF763F8414DA5FB003251096422A0
:1059700002FB1102D3003233A5FB03235B095A005B
:1059800002F4F87202EB011203F0070321681344DA
:105990008B6066E0FEF7AAFF80464FF0000906180C
:1059A00049EB090716EB000B47EB090C4FEACC0358
:1059B00043EA5B734FEACB0293469C466268002140
:1059C000921841EB010318EB0B0049EB0C01FBF7BC
:1059D0002DF8264DA5FB00325109642202FB11026D
:1059E000D3003233A5FB03235B095A0002F4F8729B
:1059F00002EB011203F00703216813448B6030E0CF
:105A0000FEF774FF4FF00009061849EB090716EB83
:105A1000000B47EB090C4FEACC0343EA5B734FEAF8
:105A2000CB0293469C4663689A009B0F10EB0B00D9
:105A300049EB0C01FAF7FAFF0C4DA5FB00325109B6
:105A4000642202FB110213013233A5FB03235B091D
:105A500003F0F00202EB011203F00F03216813447C
:105A60008B60BDE8F08B00BF001001401F85EB513B
:105A70002DE9F04105460F4616469846069C2B68D0
:105A80001B6837EA03030CBF01230023B3421DD177
:105A9000B4F1FF3FF3D02CB1FCF7E6FFA0EB080018
:105AA000A042ECD92A68D36823F4D073D3602A6863
:105AB000536923F001035361202385F8393085F8B9
:105AC0003A30002385F83830032000E00020BDE89C
:105AD000F08158B310B5044690F839300BB3242345
